{
  "abi": [
    {
      "constant": true,
      "inputs": [
        {
          "name": "_addr",
          "type": "address"
        }
      ],
      "name": "isOwner",
      "outputs": [
        {
          "name": "",
          "type": "bool"
        }
      ],
      "payable": false,
      "type": "function"
    },
    {
      "constant": true,
      "inputs": [],
      "name": "m_numOwners",
      "outputs": [
        {
          "name": "",
          "type": "uint256"
        }
      ],
      "payable": false,
      "type": "function"
    },
    {
      "constant": true,
      "inputs": [],
      "name": "m_lastDay",
      "outputs": [
        {
          "name": "",
          "type": "uint256"
        }
      ],
      "payable": false,
      "type": "function"
    },
    {
      "constant": true,
      "inputs": [],
      "name": "m_spentToday",
      "outputs": [
        {
          "name": "",
          "type": "uint256"
        }
      ],
      "payable": false,
      "type": "function"
    },
    {
      "constant": true,
      "inputs": [],
      "name": "m_required",
      "outputs": [
        {
          "name": "",
          "type": "uint256"
        }
      ],
      "payable": false,
      "type": "function"
    },
    {
      "constant": false,
      "inputs": [
        {
          "name": "_h",
          "type": "bytes32"
        }
      ],
      "name": "confirm",
      "outputs": [
        {
          "name": "o_success",
          "type": "bool"
        }
      ],
      "payable": false,
      "type": "function"
    },
    {
      "constant": false,
      "inputs": [
        {
          "name": "_limit",
          "type": "uint256"
        }
      ],
      "name": "initDaylimit",
      "outputs": [],
      "payable": false,
      "type": "function"
    },
    {
      "constant": false,
      "inputs": [
        {
          "name": "_to",
          "type": "address"
        },
        {
          "name": "_value",
          "type": "uint256"
        },
        {
          "name": "_data",
          "type": "bytes"
        }
      ],
      "name": "execute",
      "outputs": [
        {
          "name": "o_hash",
          "type": "bytes32"
        }
      ],
      "payable": false,
      "type": "function"
    },
    {
      "constant": false,
      "inputs": [
        {
          "name": "_operation",
          "type": "bytes32"
        }
      ],
      "name": "revoke",
      "outputs": [],
      "payable": false,
      "type": "function"
    },
    {
      "constant": true,
      "inputs": [
        {
          "name": "_operation",
          "type": "bytes32"
        },
        {
          "name": "_owner",
          "type": "address"
        }
      ],
      "name": "hasConfirmed",
      "outputs": [
        {
          "name": "",
          "type": "bool"
        }
      ],
      "payable": false,
      "type": "function"
    },
    {
      "constant": true,
      "inputs": [
        {
          "name": "ownerIndex",
          "type": "uint256"
        }
      ],
      "name": "getOwner",
      "outputs": [
        {
          "name": "",
          "type": "address"
        }
      ],
      "payable": false,
      "type": "function"
    },
    {
      "constant": false,
      "inputs": [
        {
          "name": "_owners",
          "type": "address[]"
        },
        {
          "name": "_required",
          "type": "uint256"
        }
      ],
      "name": "initMultiowned",
      "outputs": [],
      "payable": false,
      "type": "function"
    },
    {
      "constant": false,
      "inputs": [
        {
          "name": "_to",
          "type": "address"
        }
      ],
      "name": "kill",
      "outputs": [],
      "payable": false,
      "type": "function"
    },
    {
      "constant": false,
      "inputs": [
        {
          "name": "_owners",
          "type": "address[]"
        },
        {
          "name": "_required",
          "type": "uint256"
        },
        {
          "name": "_daylimit",
          "type": "uint256"
        }
      ],
      "name": "initWallet",
      "outputs": [],
      "payable": false,
      "type": "function"
    },
    {
      "constant": true,
      "inputs": [],
      "name": "m_dailyLimit",
      "outputs": [
        {
          "name": "",
          "type": "uint256"
        }
      ],
      "payable": false,
      "type": "function"
    },
    {
      "payable": true,
      "type": "fallback"
    },
    {
      "anonymous": false,
      "inputs": [
        {
          "indexed": false,
          "name": "owner",
          "type": "address"
        },
        {
          "indexed": false,
          "name": "operation",
          "type": "bytes32"
        }
      ],
      "name": "Confirmation",
      "type": "event"
    },
    {
      "anonymous": false,
      "inputs": [
        {
          "indexed": false,
          "name": "owner",
          "type": "address"
        },
        {
          "indexed": false,
          "name": "operation",
          "type": "bytes32"
        }
      ],
      "name": "Revoke",
      "type": "event"
    },
    {
      "anonymous": false,
      "inputs": [
        {
          "indexed": false,
          "name": "_from",
          "type": "address"
        },
        {
          "indexed": false,
          "name": "value",
          "type": "uint256"
        }
      ],
      "name": "Deposit",
      "type": "event"
    },
    {
      "anonymous": false,
      "inputs": [
        {
          "indexed": false,
          "name": "owner",
          "type": "address"
        },
        {
          "indexed": false,
          "name": "value",
          "type": "uint256"
        },
        {
          "indexed": false,
          "name": "to",
          "type": "address"
        },
        {
          "indexed": false,
          "name": "data",
          "type": "bytes"
        },
        {
          "indexed": false,
          "name": "created",
          "type": "address"
        }
      ],
      "name": "SingleTransact",
      "type": "event"
    },
    {
      "anonymous": false,
      "inputs": [
        {
          "indexed": false,
          "name": "owner",
          "type": "address"
        },
        {
          "indexed": false,
          "name": "operation",
          "type": "bytes32"
        },
        {
          "indexed": false,
          "name": "value",
          "type": "uint256"
        },
        {
          "indexed": false,
          "name": "to",
          "type": "address"
        },
        {
          "indexed": false,
          "name": "data",
          "type": "bytes"
        },
        {
          "indexed": false,
          "name": "created",
          "type": "address"
        }
      ],
      "name": "MultiTransact",
      "type": "event"
    },
    {
      "anonymous": false,
      "inputs": [
        {
          "indexed": false,
          "name": "operation",
          "type": "bytes32"
        },
        {
          "indexed": false,
          "name": "initiator",
          "type": "address"
        },
        {
          "indexed": false,
          "name": "value",
          "type": "uint256"
        },
        {
          "indexed": false,
          "name": "to",
          "type": "address"
        },
        {
          "indexed": false,
          "name": "data",
          "type": "bytes"
        }
      ],
      "name": "ConfirmationNeeded",
      "type": "event"
    }
  ],
  "bytecode": {
    "object": "0x6060604052341561000c57fe5b5b61104d8061001c6000396000f300606060405236156100d85763ffffffff7c01000000000000000000000000000000000000000000000000000000006000350416632f54bf6e811461012e5780634123cb6b1461015e5780635237509314610180578063659010e7146101a2578063746c9171146101c4578063797af627146101e65780639da5e0eb1461020d578063b61d27f614610222578063b75c7dc614610260578063c2cf732614610275578063c41a360a146102a8578063c57c5f60146102d7578063cbf0b0c01461032e578063e46dcfeb1461034c578063f1736d86146103a8575b61012c5b60003411156101295760408051600160a060020a033316815234602082015281517fe1fffcc4923d04b559f4d29a8bfc6cda04eb5b0d3c460751c2402c5c5cc9109c929181900390910190a15b5b565b005b341561013657fe5b61014a600160a060020a03600435166103ca565b604080519115158252519081900360200190f35b341561016657fe5b61016e6103eb565b60408051918252519081900360200190f35b341561018857fe5b61016e6103f1565b60408051918252519081900360200190f35b34156101aa57fe5b61016e6103f7565b60408051918252519081900360200190f35b34156101cc57fe5b61016e6103fd565b60408051918252519081900360200190f35b34156101ee57fe5b61014a600435610403565b604080519115158252519081900360200190f35b341561021557fe5b61012c600435610763565b005b341561022a57fe5b61016e60048035600160a060020a0316906024803591604435918201910135610789565b60408051918252519081900360200190f35b341561026857fe5b61012c600435610a79565b005b341561027d57fe5b61014a600435600160a060020a0360243516610b24565b604080519115158252519081900360200190f35b34156102b057fe5b6102bb600435610b79565b60408051600160a060020a039092168252519081900360200190f35b34156102df57fe5b61012c6004808035906020019082018035906020019080806020026020016040519081016040528093929190818152602001838360200280828437509496505093359350610b9a92505050565b005b341561033657fe5b61012c600160a060020a0360043516610c7f565b005b341561035457fe5b61012c60048080359060200190820180359060200190808060200260200160405190810160405280939291908181526020018383602002808284375094965050843594602001359350610cbd92505050565b005b34156103b057fe5b61016e610ce8565b60408051918252519081900360200190f35b600160a060020a03811660009081526101056020526040812054115b919050565b60015481565b60045481565b60035481565b60005481565b600060008261041181610cee565b156107595760008481526101086020526040902054600160a060020a031615158061044d57506000848152610108602052604090206001015415155b8061047a575060008481526101086020526040902060029081015461010060018216150260001901160415155b156107595760008481526101086020526040902054600160a060020a0316151561055257600084815261010860209081526040918290206001808201546002928301805486516000199482161561010002949094011693909304601f810185900485028301850190955284825261054b9490939192918301828280156105415780601f1061051657610100808354040283529160200191610541565b820191906000526020600020905b81548152906001019060200180831161052457829003601f168201915b5050505050610e59565b915061060a565b60008481526101086020526040908190208054600180830154935160029384018054600160a060020a0390941695949093919283928592918116156101000260001901160480156105e45780601f106105b9576101008083540402835291602001916105e4565b820191906000526020600020905b8154815290600101906020018083116105c757829003601f168201915b505091505060006040518083038185876187965a03f192505050151561060a5760006000fd5b5b6000848152610108602090815260409182902060018082015482548551600160a060020a033381811683529682018c90529681018390529086166060820181905295881660a082015260c06080820181815260029586018054958616156101000260001901909516959095049082018190527fe3a3a4111a84df27d76b68dc721e65c7711605ea5eee4afd3a9c58195217365c968b959394909390928a9290919060e0830190859080156107005780601f106106d557610100808354040283529160200191610700565b820191906000526020600020905b8154815290600101906020018083116106e357829003601f168201915b505097505050505050505060405180910390a1600084815261010860205260408120805473ffffffffffffffffffffffffffffffffffffffff1916815560018101829055906107526002830182610eee565b5050600192505b5b5b5b5050919050565b600060015411156107745760006000fd5b6002819055610781610e73565b6004555b5b50565b60006000610796336103ca565b15610a6c57821580156107ad57506107ad85610e82565b5b806107bb57506000546001145b156108fe57600160a060020a03861615156108115761080a8585858080601f01602080910402602001604051908101604052809392919081815260200183838082843750610e59945050505050565b9050610852565b85600160a060020a03168585856040518083838082843782019150509250505060006040518083038185876187965a03f19250505015156108525760006000fd5b5b7f9738cd1a8777c86b011f7b01d87d484217dc6ab5154a9d41eda5d14af8caf2923386888787866040518087600160a060020a0316600160a060020a0316815260200186815260200185600160a060020a0316600160a060020a031681526020018060200183600160a060020a0316600160a060020a0316815260200182810382528585828181526020019250808284376040519201829003995090975050505050505050a1610a6c565b600036436040518084848082843791909101928352505060408051602092819003830190206000818152610108909352912054909450600160a060020a031615915050801561095d575060008281526101086020526040902060010154155b801561098a5750600082815261010860205260409020600290810154610100600182161502600019011604155b156109db57600082815261010860205260409020805473ffffffffffffffffffffffffffffffffffffffff1916600160a060020a038816178155600181018690556109d9906002018585610f36565b505b6109e482610403565b1515610a6c5760408051838152600160a060020a033381811660208401529282018890528816606082015260a0608082018181529082018690527f1733cbb53659d713b79580f79f3f9ff215f78a7c7aa45890f3b89fc5cddfbf32928592909189918b918a918a9160c082018484808284376040519201829003995090975050505050505050a15b5b5b5b5b50949350505050565b600160a060020a033316600090815261010560205260408120549080821515610aa157610b1d565b50506000828152610106602052604081206001810154600284900a929083161115610b1d5780546001908101825581018054839003905560408051600160a060020a03331681526020810186905281517fc7fb647e59b18047309aa15aad418e5d7ca96d173ad704f1031a2c3d7591734b929181900390910190a15b5b50505050565b600082815261010660209081526040808320600160a060020a038516845261010590925282205482811515610b5c5760009350610b70565b8160020a9050808360010154166000141593505b50505092915050565b60006005600183016101008110610b8c57fe5b0160005b505490505b919050565b600060006001541115610bad5760006000fd5b825160019081018155600160a060020a033316906005905b0160005b505550600160a060020a033316600090815261010560205260408120600190555b8251811015610c73578281815181101515610c0157fe5b60209081029091010151600160a060020a03166005600283016101008110610c2557fe5b0160005b50819055508060020161010560008584815181101515610c4557fe5b90602001906020020151600160a060020a03168152602001908152602001600020819055505b600101610bea565b60008290555b5b505050565b600036604051808383808284378201915050925050506040518091039020610ca681610cee565b15610cb75781600160a060020a0316ff5b5b5b5050565b60006001541115610cce5760006000fd5b610cd781610763565b610c798383610b9a565b5b5b505050565b60025481565b600160a060020a033316600090815261010560205260408120548180821515610d1657610e4f565b60008581526101066020526040902080549092501515610d7957600080548355600180840191909155610107805491610d5191908301610fb5565b6002830181905561010780548792908110610d6857fe5b906000526020600020900160005b50555b8260020a90508082600101541660001415610e4f5760408051600160a060020a03331681526020810187905281517fe1c52dc63b719ade82e8bea94cc41a0d5d28e4aaf536adb5e9cccc9ff8c1aeda929181900390910190a1815460019011610e3c576000858152610106602052604090206002015461010780549091908110610dff57fe5b906000526020600020900160005b506000908190558581526101066020526040812081815560018082018390556002909101919091559350610e4f565b8154600019018255600182018054821790555b5b5b505050919050565b600081516020830184f09050803b15610000575b92915050565b600062015180425b0490505b90565b6000610e8d336103ca565b156103e657600454610e9d610e73565b1115610eb4576000600355610eb0610e73565b6004555b60035482810110801590610ece5750600254826003540111155b15610ee35750600380548201905560016103e6565b5060005b5b5b919050565b50805460018160011615610100020316600290046000825580601f10610f145750610785565b601f0160209004906000526020600020908101906107859190610fdf565b5b50565b828054600181600116156101000203166002900490600052602060002090601f016020900481019282601f10610f775782800160ff19823516178555610fa4565b82800160010185558215610fa4579182015b82811115610fa4578235825591602001919060010190610f89565b5b50610fb1929150610fdf565b5090565b815481835581811511610c7957600083815260209020610c79918101908301610fdf565b5b505050565b610e7f91905b80821115610fb15760008155600101610fe5565b5090565b90565b610e7f91905b80821115610fb15760008155600101610fe5565b5090565b905600a165627a7a723058203535cd51f11f750557fbb3cb64f7171712858c04105be16efd99b114bf9f5dff0029",
    "linkReferences": {}
  },
  "methodIdentifiers": {
    "confirm(bytes32)": "797af627",
    "execute(address,uint256,bytes)": "b61d27f6",
    "getOwner(uint256)": "c41a360a",
    "hasConfirmed(bytes32,address)": "c2cf7326",
    "initDaylimit(uint256)": "9da5e0eb",
    "initMultiowned(address[],uint256)": "c57c5f60",
    "initWallet(address[],uint256,uint256)": "e46dcfeb",
    "isOwner(address)": "2f54bf6e",
    "kill(address)": "cbf0b0c0",
    "m_dailyLimit()": "f1736d86",
    "m_lastDay()": "52375093",
    "m_numOwners()": "4123cb6b",
    "m_required()": "746c9171",
    "m_spentToday()": "659010e7",
    "revoke(bytes32)": "b75c7dc6"
  },
  "id": 0
}